:020000040000FA
:0400000039EF00F0E4
:060008006E826FED08F0AE
:100018006E80D8CF0AF0E8CF0BF0E0CF0CF09EACA2
:1000280018EF00F01AEF00F031EF00F0C450096E3D
:10003800086AC35008240D6E000E09200E6E0DC00C
:1000480006F00EC007F023EC0AF09E9C0D0E086E19
:10005800FC0EE82EFED7082EFCD70CC0E0FF0BC024
:0E006800E8FF0AC0D8FF6E90100089EF09F083
:100600000053797374656D20696E697469616C69F2
:100610007A696E672E2E2E0A004D415833303130E4
:1006200032204F6E6C696E65210D0A004D415833C2
:1006300030313032204572726F72210D0A00256C04
:0F064000752C25640A001B5B324A1B5B480000C7
:100650001F50D96EDA6ADFCFF6FF060EF76E08007C
:10066000F550250AD8A437EF03F039EF03F010EF67
:1006700005F01F50D96EDA6ADF2A000E636E000E95
:10068000626E62C06CF0646865681F50D96EDA6A89
:10069000DF50246E24C0F6FF060EF76E0800F5CF7B
:1006A00029F05DEF03F0242A70EF03F0690E296E44
:1006B00070EF03F0296A70EF03F02950640AD8B490
:1006C00056EF03F00D0AD8B456EF03F0050AD8B47C
:1006D00053EF03F0190AD8B456EF03F05AEF03F0C2
:1006E00024C0F6FF060EF76E0800F550640AD8B471
:1006F0007CEF03F07EEF03F0B3EF03F024C0F6FFCE
:10070000060EF76E0800F550690AD8A48AEF03F0C8
:100710008CEF03F050EF04F0B3EF03F02050D96EEC
:10072000DA6ADF50DF2ADF2AD96EDA6ADECF25F0F7
:10073000DDCF26F0000E26BEFF0E276E286EBEEF20
:1007400003F02050D96EDA6A040EDF26DF5CD96E22
:10075000DA6ADECF25F0DECF26F0DECF27F0DECF5F
:1007600028F0BEEF03F02950690AD8B48EEF03F0E9
:10077000050AD8B4A1EF03F0BEEF03F01F50D96E05
:10078000DA6A2428DF6E200E296E28BECAEF03F035
:10079000CDEF03F0010ECEEF03F0000E236E29061D
:1007A0002950420FD96EDA6A25C00FF026C010F02A
:1007B00027C011F028C012F00A0E136E000E146E3E
:1007C000000E156E000E166E49EC06F00FC019F003
:1007D00010C01AF01DEC09F01950300FDF6E25C063
:1007E0000FF026C010F027C011F028C012F00A0E3A
:1007F000136E000E146E000E156E000E166EC4EC15
:1008000005F00FC025F010C026F011C027F012C06F
:1008100028F02550261027102810D8B412EF04F025
:1008200014EF04F01CEF04F02950D8A41AEF04F0E0
:100830001CEF04F0CFEF03F02950D8B422EF04F0FE
:1008400024EF04F045EF04F02350D8B42AEF04F06D
:100850002CEF04F045EF04F029062950420FD96E21
:10086000DA6A2D0EDF6E45EF04F02950420FD96E83
:10087000DA6ADF50216E2150106E116A1DC012F02D
:100880001EC013F02DEC07F0292A200E2918D8A439
:100890004CEF04F04EEF04F035EF04F023EF05F0D9
:1008A00024C0F6FF060EF76E0800F550750AD8A4AE
:1008B0005CEF04F05EEF04F00AEF05F086EF04F061
:1008C0002050D96EDA6ADF50DF2ADF2AD96EDA6A61
:1008D000DECF21F0DDCF22F021C025F022C026F0AE
:1008E000276A286A91EF04F02050D96EDA6A040E64
:1008F000DF26DF5CD96EDA6ADECF25F0DECF26F0A8
:10090000DECF27F0DECF28F091EF04F02950690AFE
:10091000D8B460EF04F0050AD8B474EF04F091EF96
:1009200004F01F50D96EDA6A2428DF6EFEEF04F05F
:10093000200E296E29062950420FD96EDA6A25C089
:100940000FF026C010F027C011F028C012F00A0ED8
:10095000136E000E146E000E156E000E166E2BEC4C
:1009600008F00F50300FDF6E25C00FF026C010F0DA
:1009700027C011F028C012F00A0E136E000E146E7C
:10098000000E156E000E166E92EC07F00FC025F0EB
:1009900010C026F011C027F012C028F025502610F4
:1009A00027102810D8B4D7EF04F0D9EF04F0F3EFF4
:1009B00004F02950D8A4DFEF04F0E1EF04F09AEF3F
:1009C00004F0F3EF04F02950420FD96EDA6ADF50D9
:1009D000216E2150106E116A1DC012F01EC013F05E
:1009E0002DEC07F0292A200E2918D8A4FAEF04F0DC
:1009F000FCEF04F0E3EF04F023EF05F024C0F6FF72
:100A0000060EF76E0800F550750AD8B498EF04F09A
:100A10000AEF05F01F50D96EDA6ADF2A23EF05F0DE
:100A20001F50D96EDA6ADFCFF6FF060EF76E0800A8
:100A3000F550106E116A1DC012F01EC013F02DEC9F
:100A400007F00AEF05F0120030EC0AF0AE0E61EC90
:100A500009F0070E61EC09F034EC0AF0AF0E61EC1E
:100A600009F0010E75EC09F0146E14C015F0166A49
:100A7000176A186A16C018F015C017F0166A156ABA
:100A800015C019F016C01AF017C01BF018C01CF0E2
:100A9000010E75EC09F0146E14C015F0166A176A91
:100AA000186A17C018F016C017F015C016F0156AAE
:100AB0001550191216501A1217501B1218501C12EA
:100AC000010E75EC09F0146E14501912010E75EC3C
:100AD00009F0146E14C015F0166A176A186A16C069
:100AE00018F015C017F0166A156A15C01DF016C06B
:100AF0001EF017C01FF018C020F0010E75EC09F0B1
:100B0000146E14C015F0166A176A186A17C018F028
:100B100016C017F015C016F0156A15501D121650A4
:100B20001E1217501F1218502012000E75EC09F0FB
:100B3000146E14501D122CEC0AF0FF0E1916FF0E45
:100B40001A16030E1B16000E1C16FF0E1D16FF0EA6
:100B50001E16030E1F16000E20161250D96EDA6AEA
:100B600019C0DEFF1AC0DEFF1BC0DEFF1CC0DEFFA7
:100B70001350D96EDA6A1DC0DEFF1EC0DEFF1FC033
:100B8000DEFF20C0DEFF1200186A16BECCEF05F0B3
:100B9000CAEF05F0D6EF05F0161E151E141E136CD5
:100BA000000E142215221622010E186E12BEDDEF61
:100BB00005F0DBEF05F0E7EF05F0121E111E101E29
:100BC0000F6C000E102211221222010E181A000EB4
:100BD000196E000E1A6E000E1B6E000E1C6E135066
:100BE000141015101610D8B4F8EF05F0FAEF05F050
:100BF00030EF06F0010E176E04EF06F0D8901336B2
:100C0000143615361636172A16AE09EF06F00BEF16
:100C100006F0FEEF05F0D89019361A361B361C3652
:100C200013500F5C1450105815501158165012588C
:100C3000D8A01DEF06F01FEF06F028EF06F01350C6
:100C40000F5E1450105A1550115A1650125A19802E
:100C5000D8901632153214321332172E0BEF06F0DD
:100C60001850D8B436EF06F038EF06F040EF06F033
:100C70001C1E1B1E1A1E196C000E1A221B221C227F
:100C800019C00FF01AC010F01BC011F01CC012F0F8
:100C90001200186A12BE51EF06F04FEF06F05BEF3C
:100CA00006F0121E111E101E0F6C000E10221122D3
:100CB0001222010E186E16BE62EF06F060EF06F00B
:100CC0006AEF06F0161E151E141E136C000E142279
:100CD000152216221350141015101610D8B473EFE5
:100CE00006F075EF06F0A5EF06F0010E176E7FEF28
:100CF00006F0D8901336143615361636172A16AE67
:100D000084EF06F086EF06F079EF06F013500F5CE3
:100D1000145010581550115816501258D8A093EF6F
:100D200006F095EF06F09DEF06F013500F5E14509D
:100D3000105A1550115A1650125AD89016321532B0
:100D400014321332172E86EF06F01850D8B4ABEFDA
:100D500006F0ADEF06F0B5EF06F0121E111E101EE4
:100D60000F6C000E1022112212220FC00FF010C0C3
:100D700010F011C011F012C012F012004DEC09F089
:100D8000460E2F6EF5EC09F0010E2F6EF5EC09F012
:100D9000020E386E040E376EBA0EE82EFED7372ECE
:100DA000FCD7382EFAD700D0E4EC07F00009D8B40D
:100DB000DCEF06F0DEEF06F0E4EF06F0190E2F6E22
:100DC000F5EC09F0EAEF06F02C0E2F6EF5EC09F0C9
:100DD000E8EF06F0000E396E000E3A6E000E3B6E24
:100DE000000E3C6E000E3E6E000E3F6E000E406E1A
:100DF000000E416E0EEC0AF03D6E16EF07F0390E54
:100E0000126E3E0E136E24EC05F03E0E2F6E3EC0A9
:100E100030F03FC031F040C032F041C033F06AC022
:100E200034F06BC035F0F5EC09F03D063D50D8A428
:100E30001CEF07F01EEF07F0FFEF06F068046910E3
:100E4000D8A425EF07F027EF07F0FAEF06F01AEC29
:100E50000AF0FAEF06F039EF00F012501310D8B490
:100E600034EF07F036EF07F03FEF07F012501310A2
:100E7000D8A43DEF07F03FEF07F044EF07F0105024
:100E8000A9EC08F091EF07F020EE09F01250D926F6
:100E90001350DA22DE50DE10D8B451EF07F053EFD2
:100EA00007F06EEF07F020EE09F01250D92613502C
:100EB000DA2210EE02F01250E1261350E222DE5048
:100EC000E65CE650800A186EDE50800A1858D8B0EA
:100ED0006CEF07F06EEF07F091EF07F020EE02F0F5
:100EE0001250D9261350DA22DECF14F0DDCF15F0E0
:100EF00012C0D9FF13C0DAFFDECF16F0DDCF17F036
:100F000014501624D96E15501720DA6E10C0DFFF6A
:100F100020EE02F01250D9261350DA22DE2A000EFB
:100F2000DD221200000E176E000E186E000E196EF4
:100F3000000E1A6E1350141015101610D8B4A3EF2B
:100F400007F0A5EF07F0DBEF07F0010E1B6EAFEF28
:100F500007F0D89013361436153616361B2A16AEFF
:100F6000B4EF07F0B6EF07F0A9EF07F0D890173607
:100F7000183619361A3613500F5C14501058155085
:100F8000115816501258D8A0C8EF07F0CAEF07F052
:100F9000D3EF07F013500F5E1450105A1550115A2A
:100FA0001650125A1780D890163215321432133256
:100FB0001B2EB6EF07F017C00FF018C010F019C0C5
:100FC00011F01AC012F01200FF0E37EC09F0156E86
:100FD000150E1518D8B4EFEF07F0F1EF07F0F4EFA6
:100FE00007F0000E2AEF08F0400E116E090EE6EC35
:100FF00009F01A0E146EF80EE82EFED7142EFCD748
:1010000000D0000E116E040EE6EC09F0000E116E19
:10101000050EE6EC09F0000E116E060EE6EC09F086
:10102000500E116E080EE6EC09F02F0E116E0A0E2E
:10103000E6EC09F00A0E116E0C0EE6EC09F01F0E3C
:10104000116E0D0EE6EC09F0030E116E090EE6ECC2
:1010500009F0010E12001350141015101610D8B418
:1010600034EF08F036EF08F066EF08F0010E176E67
:1010700040EF08F0D8901336143615361636172A76
:1010800016AE45EF08F047EF08F03AEF08F01350BE
:101090000F5C145010581550115816501258D8A003
:1010A00054EF08F056EF08F05EEF08F013500F5EB3
:1010B0001450105A1550115A1650125AD890163210
:1010C000153214321332172E47EF08F00FC00FF00D
:1010D00010C010F011C011F012C012F01200060082
:1010E000D9CF04F0DACF05F0F2A279EF08F07BEF68
:1010F00008F090EF08F0F298340E036EF20EE82E2E
:10110000FED7032EFCD781A088EF08F08AEF08F005
:101110008CEF08F0D4EC09F0010E6D6EF292F288BB
:101120009EAA95EF08F097EF08F0A3EF08F0ABA2A6
:101130009CEF08F09EEF08F0A1EF08F0AB980000DC
:10114000AB88DAEC08F005C0DAFF04C0D9FF6E9274
:1011500011000F6E0A0E0F18D8B4B1EF08F0B3EFFC
:1011600008F0BCEF08F00D0E0F18D8A4BAEF08F085
:10117000BCEF08F0D0EF08F0ACA2C1EF08F0C3EF6D
:1011800008F0BCEF08F00D0EAD6EACA2CAEF08F08F
:10119000CCEF08F0C5EF08F00A0EAD6ED9EF08F0FD
:1011A000ACA2D5EF08F0D7EF08F0D0EF08F00FC0F1
:1011B000ADFF1200AECF02F002C001F0E00E01263A
:1011C0005E0E0164E6EF08F0E8EF08F0F3EF08F0D8
:1011D0000D0E0218D8B4EFEF08F0F1EF08F0F3EFBE
:1011E00008F0FBEF08F06650800FD96EDA6A02C093
:1011F000DFFF664A672A12002CC02EF00AEF09F0C2
:101200002AC01DF02BC01EF02E0E1F6E2DC020F028
:1012100028EC03F02EC0F6FF060EF76E0800F5501E
:101220000009D8A416EF09F018EF09F000EF09F053
:10123000000E2B6E000E2A6E12001ABE22EF09F06D
:1012400024EF09F02AEF09F019C019F01AC01AF0BA
:1012500036EF09F019C01BF01AC01CF01B1E1C1E33
:101260001B4A1C2A1BC019F01CC01AF01200126E77
:1012700030EC0AF0AE0E61EC09F0125061EC09F0AE
:1012800034EC0AF0AF0E61EC09F0000E75EC09F0D9
:10129000136E2CEC0AF013501200700ED312C150D2
:1012A000F00B0E09C16E9CEC09F028EC0AF0C2ECC0
:1012B00009F002EC0AF0F28CD08EF28EF28CF28EF3
:1012C0001200106EAFEC09F010C0C9FFC7B06BEF91
:1012D00009F06DEF09F066EF09F0C5BC72EF09F097
:1012E00074EF09F06DEF09F01200106EAFEC09F029
:1012F000C586C7A07EEF09F080EF09F079EF09F00D
:10130000C9CF11F010B002D0C59801D0C5881150D6
:10131000120000EE80F0640EEE6AE806FDE100EED9
:1013200042F02C0EEE6AE806FDE16E906E92000E21
:10133000F86E0001BEEF06F09280C30EC216C1988F
:10134000C19AC050F80B0509C06EC050C70B080900
:10135000C06EC280C08E9E9C9F9C9D8C1200C5CF8B
:101360000FF01F0E0F16D8A4B8EF09F0BAEF09F06E
:10137000AFEF09F0C7B4BFEF09F0C1EF09F0AFEF6D
:1013800009F01200948C948EAC98B886AC84100E40
:10139000AF6EB06AAB8E9E989E9AAC8AAB889D98D1
:1013A0009F989D8A9F8A120068506910D8B4DBEF1D
:1013B00009F0DEEF09F0010EDFEF09F0000E686EB4
:1013C000696A000E6B6E000E6A6E1200126E30ECCF
:1013D0000AF0AE0E61EC09F0125061EC09F0115008
:1013E00061EC09F02CEC0AF01200300E366E000EA3
:1013F0002A6E000E2B6E2FC02CF0360E2D6EFCECDC
:1014000008F0120094869488C79EC78CC650F00BD3
:101410000809C66E040EC86EC68A1200040E37ECA8
:1014200009F0146E060E37EC09F0156E1550145CB9
:101430001F0B1200C2B21FEF0AF021EF0AF022EFD9
:101440000AF0C282120006C06AF007C06BF01200F8
:10145000F292F28893801200AFEC09F0C58412007A
:10146000AFEC09F0C5801200AFEC09F0C5821200A4
:020000040020DA
:08000000FFFFFFFFFFFFFFFF00
:020000040030CA
:0E000000FF881F00FF8381FF0FC00FE00F403D
:00000001FF
